S01700004763634170706C69636174696F6E322E737265635A
S11300000C9434000C9451000C9451000C94510045
S11300100C9451000C94C5000C9451000C945100A4
S11300200C9451000C9451000C9451000C94510008
S11300300C9451000C9451000C9451000C945100F8
S11300400C9451000C9451000C9451000C945100E8
S11300500C9451000C9451000C9451000C945100D8
S11300600C9451000C94510011241FBECFEFD8E022
S1130070DEBFCDBF11E0A0E0B1E0EAECF3E002C0E6
S113008005900D92AE30B107D9F721E0AEE0B1E0B2
S113009001C01D92A031B207E1F70E94BC000C948C
S11300A0E3010C94000061E081E00E94F3000895F4
S11300B0E0910E01F0E0E65FFE4F608181E00E9476
S11300C0120187EA91E60197F1F700C000008091E0
S11300D00E018F5F80930E01843011F410920E0193
S11300E0089540E062E082E00E941E0140E063E087
S11300F082E00E941E0141E062E082E00E947901F8
S113010041E062E082E00E947901089561E080E0CC
S11301100E94F3000895CF93DF93CDB7DEB72A97FB
S11301200FB6F894DEBF0FBECDBF8AE0E0E0F1E089
S1130130DE01119601900D928A95E1F780910F01ED
S1130140E1E0F0E0EC0FFD1FE80FF11D608180E0BD
S11301500E94120180910F018F5F80930F018A30FA
S113016011F410920F012A960FB6F894DEBF0FBE59
S1130170CDBFDF91CF9108950E9453000E94860065
S11301800E9471000E94D401FFCF1F920F920FB6FC
S11301900F9211242F933F934F935F936F937F9309
S11301A08F939F93AF93BF93EF93FF934A9904C0A8
S11301B00E9458004A9BFECF4B9904C00E948B00BA
S11301C04B9BFECFFF91EF91BF91AF919F918F9188
S11301D07F916F915F914F913F912F910F900FBE3F
S11301E00F901F901895613079F4813039F018F030
S11301F0823039F008958FEF84B908958FEF87B96D
S113020008958FEF8AB9089561110BC0813031F0E0
S113021018F0823029F0089514B8089517B8089595
S11302201AB80895813031F018F0823029F0089519
S113023065B9089568B908956BB90895833008F0D5
S113024057C0683008F054C0413039F5813079F036
S113025018F08230B9F0089524B181E090E002C032
S1130260880F991F6A95E2F7822B84B9089527B104
S113027081E090E002C0880F991F6A95E2F7822B13
S113028087B908952AB181E090E002C0880F991FD0
S11302906A95E2F7822B8AB90895411129C0813009
S11302A081F018F08230C9F0089524B181E090E023
S11302B002C0880F991F6A95E2F78095822384B95A
S11302C0089527B181E090E002C0880F991F6A95D4
S11302D0E2F78095822387B908952AB181E090E0FE
S11302E002C0880F991F6A95E2F7809582238AB924
S11302F00895833008F057C0683008F054C0413086
S113030039F5813079F018F08230B9F0089525B1CB
S113031081E090E002C0880F991F6A95E2F7822B72
S113032085B9089528B181E090E002C0880F991F33
S11303306A95E2F7822B88B908952BB181E090E0A9
S113034002C0880F991F6A95E2F7822B8BB9089532
S1130350411129C0813081F018F08230C9F008952C
S113036025B181E090E002C0880F991F6A95E2F7F9
S11303708095822385B9089528B181E090E002C078
S1130380880F991F6A95E2F78095822388B90895AA
S11303902BB181E090E002C0880F991F6A95E2F7C3
S11303A0809582238BB90895EDE6F0E08081846026
S11303B08083808188608083E8E6F0E080818460C7
S10D03C0808378940895F894FFCF29
S11103CA3F065B4F666D7D077F6F01020408DE
S9030000FC
