S01B0000636F6465776974686F757464726976657273732E73726563E8
S11300000C9434000C9451000C9451000C94510045
S11300100C9451000C949E000C9451000C945100CB
S11300200C9451000C9451000C9451000C94510008
S11300300C9451000C9451000C9451000C945100F8
S11300400C9451000C9451000C9451000C945100E8
S11300500C9451000C9451000C9451000C945100D8
S11300600C9451000C94510011241FBECFEFD8E022
S1130070DEBFCDBF11E0A0E0B1E0E4EBF1E002C0EF
S113008005900D92AA30B107D9F721E0AAE0B1E0BA
S113009001C01D92AC30B207E1F70E9499000C94A4
S11300A0D8000C9400008FEF87B984B98AB1837F9C
S11300B08AB98BB18C608BB9089581E090E000908F
S11300C00A0102C0880F991F0A94E2F788B987EAE7
S11300D091E60197F1F700C0000080910A018F5F5B
S11300E080930A01843010F010920A010895E0917F
S11300F00B01F0E0E050FF4F808185B980910B0146
S11301008F5F80930B0180910B018A3011F4109260
S11301100B010895EDE6F0E08081846080838081A6
S113012088608083E8E6F0E080818460808378944E
S113013008950E9453000E948A00FFCF1F920F92DD
S11301400FB60F9211242F933F934F935F936F93A6
S11301507F938F939F93AF93BF93EF93FF934A99AA
S11301600AC00E945D0087EA91E60197F1F700C09A
S113017000004A9BFECF4B990AC00E94770087EA91
S113018091E60197F1F700C000004B9BFECFFF9171
S1130190EF91BF91AF919F918F917F916F915F91FB
S11301A04F913F912F910F900FBE0F901F90189574
S10701B0F894FFCFED
S10D01B43F065B4F666D7D077F6F09
S9030000FC
